:020000040800F2
:10000000181000206D030008610300086103000858
:1000100061030008610300086103000880B500AFB8
:1000200000F0F6F800BF80BD80B500AF002000F002
:10003000D1F800BF80BD80B500AF012000F0CAF844
:1000400000BF80BD80B500AF064B1B68002B01D1FF
:10005000FFF7F1FF034B1B68012B01D1FFF7E4FF12
:1000600000BF80BD0400002080B400AF034B044AF1
:100070001A6000BFBD4680BC704700BF780400080E
:100080004500000880B400AF034B044A1A6000BF6B
:10009000BD4680BC704700BF7804000845000008DA
:1000A00080B400AF034B044A1A6000BFBD4680BC59
:1000B000704700BF80040008D900000880B500AF79
:1000C000044B00221A60FFF7B6FF00F045F800BFAE
:1000D00080BD00BF0400002080B500AF064B0122A8
:1000E0001A60FFF7A1FF054B3C221A60044B054A3A
:1000F0001A6000BF80BD00BF04000020080000207F
:10010000800400080901000880B500AF04E0094B35
:100110001B68013B074A1360064B1B68002BF6D196
:10012000044B00221A60FFF786FF034B034A1A6054
:1001300000BF80BD0800002080040008BD0000084A
:1001400080B500AF00F03AF80246024B1A6000BFDB
:1001500080BD00BF0C00002080B500AFFFF7F0FFAE
:100160000A4B1A680A4B1B689A4205DCFFF7E8FF46
:10017000084B094A1A6006E0FFF792FFFFF7E0FF1D
:10018000044B054A1A6000BF80BD00BF0C00002070
:1001900000000020840400085901000880B483B0E6
:1001A00000AF786002E07B68013B7B607B68002BDE
:1001B000F9D100BF0C37BD4680BC704780B400AF9A
:1001C000034B1B68DBB21846BD4680BC704700BFBE
:1001D0000808014080B483B000AF78607B68012BD1
:1001E00006D10A4B1B68094A43F40053136008E028
:1001F0007B68002B05D1054B1B68044A23F4005390
:10020000136000BF0C37BD4680BC70470C0801402E
:1002100080B400AF0F4B1B680E4A43F00403136019
:100220000D4B1B680C4A23F4700313600A4B0A4AF7
:100230001B681360094B1B68084A23F470031360A2
:10024000064B1B68054A43F02233136000BFBD46CE
:1002500080BC7047181002400008014004080140AB
:1002600080B500AFFFF7DAFE00F040F8074B084A10
:100270001A60084B084A1A60084B094A1A60FFF7CF
:10028000DAFE084B084A1A6000BF80BD80040008EF
:10029000BD00000888040008F90200088404000872
:1002A00059010008780400084500000880B500AF37
:1002B000FFF7AEFFFFF7D4FF084B1B689847084BCA
:1002C0001B689847074B1B689847074B1B68984764
:1002D00042F21070FFF762FFEEE700BF88040008EB
:1002E00084040008800400087804000880B500AF8A
:1002F000FFF78EFF00BF80BD80B500AFFFF75EFF48
:100300000246054B1A60054B64221A60044B054AED
:100310001A6000BF80BD00BF100000201400002044
:10032000880400082903000880B400AF04E0094BEA
:100330001B68013B074A1360064B1B68002BF6D174
:10034000044B00221A60044B044A1A6000BFBD46E9
:1003500080BC70471400002088040008F9020008DF
:1003600080B500AF00F002F800BF80BD80B586B058
:1003700000AF1A4A1A4BD31A7B601A4B7B61184B99
:100380003B610023FB600AE07A69531C7B613B6997
:10039000591C396112781A70FB680133FB60FB68E5
:1003A0007A689A42F0D8104A104BD31A3B600F4B30
:1003B0003B610023BB6007E03B695A1C3A610022A5
:1003C0001A70BB680133BB60BB683A689A42F3D8C5
:1003D000FFF76CFF00BF1837BD4680BD040000204A
:1003E00000000020F0030008180000200400002096
:0403F00014000000F5
:1003F4004743433A2028474E5520546F6F6C73206F
:10040400666F722041726D20456D62656464656437
:100414002050726F636573736F727320372D32309F
:1004240031372D71342D6D616A6F722920372E3268
:100434002E31203230313730393034202872656C17
:100444006561736529205B41524D2F656D6265645A
:100454006465642D372D6272616E636820726576FF
:100464006973696F6E203235353230345D000000B7
:100474000000000000000000000000000000000078
:090484000000000000000000006F
:0400000508000000EF
:00000001FF
